:020000040800F2
:10000000000C0020590D0008150300081703000814
:1000100000000000000000000000000000000000E0
:1000200000000000000000000000000019030008AC
:1000300000000000000000001B0300081D03000872
:10004000000000000000000000000000A90D0008F2
:10005000A90D0008A90D0008A90D0008A90D0008A8
:100060000000000000000000000000000000000090
:10007000A90D0008A90D0008A90D00080000000046
:1000800000000000A90D000800000000A90D0008F4
:10009000000000000000000000000000A90D0008A2
:1000A00000000000A90D000800000000A90D0008D4
:1000B0000000000000000000000000000000000040
:1000C00010B5064C2378002B07D1054B002B02D02E
:1000D000044800E000BF0123237010BD0C00002085
:1000E00000000000AC0D0008044B10B5002B03D03D
:1000F0000349044800E000BF10BDC04600000000F6
:1001000010000020AC0D0008002243088B4274D37D
:1001100003098B425FD3030A8B4244D3030B8B4208
:1001200028D3030C8B420DD3FF22090212BA030C11
:100130008B4202D31212090265D0030B8B4219D3F2
:1001400000E0090AC30B8B4201D3CB03C01A524112
:10015000830B8B4201D38B03C01A5241430B8B425A
:1001600001D34B03C01A5241030B8B4201D30B0343
:10017000C01A5241C30A8B4201D3CB02C01A52416A
:10018000830A8B4201D38B02C01A5241430A8B422D
:1001900001D34B02C01A5241030A8B4201D30B0216
:1001A000C01A5241CDD2C3098B4201D3CB01C01A30
:1001B000524183098B4201D38B01C01A524143093A
:1001C0008B4201D34B01C01A524103098B4201D328
:1001D0000B01C01A5241C3088B4201D3CB00C01A95
:1001E000524183088B4201D38B00C01A524143080D
:1001F0008B4201D34B00C01A5241411A00D2014632
:10020000524110467047FFE701B5002000F006F8A4
:1002100002BDC0460029F7D076E770477047C04658
:1002200070B500260C4D0D4C641BA410A64209D1DC
:10023000002600F0BBFD0A4D0A4C641BA410A64228
:1002400005D170BDB300EB5898470136EEE7B30017
:10025000EB5898470136F2E7FC0D0008FC0D00084A
:10026000FC0D0008000E000803008218934200D124
:10027000704719700133F9E782B00A4B196C0122FB
:1002800011431964196C0A400092009ADA6B8021BC
:1002900049050A43DA63DB6B0B400193019B02B013
:1002A0007047C0460010024030B589B014220021CA
:1002B00003A8FFF7D9FF144CE36B8025AD032B4354
:1002C000E363E36B2B400193019B626B02231A43B0
:1002D0006263626B13400293029B18230393063BF5
:1002E0000493113B0593023306930333079303A949
:1002F000064800F041FCE36A1D43E562E36A044AF4
:100300001340E36209B030BD001002400004005009
:10031000FFFFDFFF7047FEE77047704710B500F042
:10032000FFFB10BDFEE70000F0B5C64600B58AB081
:1003300000F0EAFB3748384B0360384B43608023BA
:10034000DB0183606023C36000230361436100F02D
:1003500025FA002801D0FFF7E5FF09AA304B1B78EA
:100360001370FA239B000293012301930092002251
:100370006021284800F0EAFA002801D0FFF7D2FFF8
:1003800009AAFF231370FA239B0002930123019310
:1003900000926E2260211F4800F0D8FA04AA214B77
:1003A00013CB13C211001A680A609B888B8000254A
:1003B0001EE0ACB2621C92B2164EFA239B00984625
:1003C00002930127019704AB5B190093012360217D
:1003D000300000F0BBFA4A34A2B2434602930197C0
:1003E00009AB009301236021300000F0AFFA013522
:1003F0000F2DDEDD09AA00231370FA239B00029360
:1004000001230193009249226021024800F09EFAE4
:10041000FEE7C0462800002000540040A0860100EE
:10042000D80D0008C40D000870B5002811DB830842
:10043000134EC0339B009D5903242040C000FF226F
:1004400014008440A54389010A4082402A439A51FE
:1004500070BD0F230340083B9B0806339B00094AED
:10046000944663445C6803221040C000FC321500CF
:100470008540AC4389010A40824022435A60E7E745
:1004800000E100E000ED00E0013880235B049842C9
:100490000FD2094A50600948036A1B021B0AC02197
:1004A00009060B43036200239360073313600020A7
:1004B00070470120FCE7C04610E000E000ED00E0DE
:1004C00003685A69520501D400207047084A5A61EE
:1004D0000023436229222021815401328354C26ABD
:1004E0001C390A43C262282283540120EDE7C0462A
:1004F000FFFBFFFFF0B5C64600B507000D009046B4
:100500001E0021E000F018FB069BC01AB04201D883
:10051000002E19D100237B6220212922B9540132F7
:10052000BB54FA6A0A43FA622822BB54012019E03C
:100530003B689B692C009C43240463425C41E4B209
:10054000A0450ED1731CDDD12B0CDBB2012BEFD1FA
:100550003B685B692C009C43240463425C41E4B229
:10056000EEE7002080BCB846F0BD0000F0B583B0D7
:1005700006000F00150001933CE0196880229200EC
:100580000A431A603368234A5A610023736229229E
:100590002021B1540132B354F26A1C390A43F26289
:1005A0002822B354012033E000F0C6FA019BC01AA0
:1005B000A84201D8002D1DD10023736220212922D9
:1005C000B1540132B354F26A0A43F2622822B3549E
:1005D00001201DE033689B693C009C432404631E9A
:1005E0009C41E4B2002C12D033685A695205C4D43D
:1005F0006B1CD9D13B0CDBB2012BEBD133685B69AF
:100600003C009C432404631E9C41E4B2EAE70020C2
:1006100003B0F0BDFFFBFFFF70B504000E00150036
:1006200023685B691B061BD42000FFF749FF0028E5
:1006300018D1731CF4D000F07FFA401BB04201D8EF
:10064000002EEDD10023636220212922A154013222
:10065000A354E26A0A43E2622822A354012000E084
:10066000002070BD0120FCE7F0B585B004000D004E
:1006700016001F000268116880235B000B431360A3
:100680000B9B00930A9B00222D49FFF733FF0028A4
:1006900002D0012005B0F0BDEDB2236801229543E0
:1006A0001D610B9B0A9A27492000FFF75FFF002876
:1006B00001D00120EEE70023039323685A690392D7
:1006C0009B690393039B0B9A0A992000FFF7A4FFF1
:1006D00000280ED1012F18D12368F6B21E610B9BA2
:1006E0000A9A19492000FFF741FF0028D2D00120C3
:1006F000D0E7E36A042B01D00120CBE72268116820
:10070000FD33FF330B431360F6E72368320A1A61A7
:100710000B9A0A992000FFF77FFF002803D1236876
:10072000F6B21E61DBE7E36A042B01D00120B1E7DA
:1007300022681168FD33FF330B431360F6E7C046B0
:1007400001000100020001008000010070B50400FA
:100750000E00150023685B695B071BD42000FFF7C0
:10076000AFFE002818D1731CF4D000F0E5F9401B4F
:10077000B04201D8002EEDD100236362202129224E
:10078000A1540132A354E26A0A43E2622822A3542C
:10079000012000E0002070BD0120FCE7F8B5CE4646
:1007A000474680B5041E00D1C0E02923C35C002B5E
:1007B00063D029232422E2542268136801218B4349
:1007C000136000F0C5F905005A4B62689A425AD886
:1007D0000023594A82425B41DBB2002B00D0A7E0E4
:1007E00056492800FFF790FC21684B683F2293434D
:1007F00003434B6027683E6A96434E4B62689A42B9
:1008000047D80130304338622768FE694C4B1E40A0
:1008100063689846474B984546D8681E434659003A
:10082000FFF772FC0130474B184200D17AE0000517
:10083000000D3043F86121680B68C02293432269A0
:100840006069024313430B6022689368FE218B4367
:10085000E1680B4393602268136801210B43136026
:100860000023E36229221F31A15463620132A354A1
:100870000020C0BCB946B046F8BD28330022C2549F
:10088000FFF712FD95E700232F4A82425B41DBB25E
:10089000A3E7830018180301181A8000FA218900C1
:1008A000FFF732FC0130ADE7A3689946002B1CD15D
:1008B000681E434659004144FFF726FC01300305FA
:1008C0005A425341DBB2002B2ED14B46002B1AD19A
:1008D000681E434659004144FFF716FC01300005ED
:1008E000030D802000021843A3E7681E43469900C9
:1008F00041448B00C918FFF707FC013003055A4239
:100900005341DBB2DFE7681E4346990041448B0048
:10091000C918FFF7F9FB01300005030DC0200002E4
:10092000184386E7042084E7012082E70120A0E73E
:1009300001209EE7A08601007F841E0040420F0038
:100940000030FFFFFC0F0000FF083D00F0B587B04E
:1009500004000391049205930CAB80CB1E8800F039
:10096000EBF805002923E35C202B02D0022007B01E
:10097000F0BD0090073B01224A492000FFF7BAFD75
:10098000002800D087E02823E35C012B00D184E01D
:1009900001222823E254236819680A4203D11A6805
:1009A00001210A431A60226813683F490B40136013
:1009B00029232122E25401331F32E2540023E3624F
:1009C000A761E683E38BA383384B236201950E9BDB
:1009D0000093059B049A03992000FFF745FE002829
:1009E0005DD1A38B002B34D02A000E992000FFF795
:1009F00013FE002821D12368A26912781A61A16927
:100A00004B1CA361A38B013B9BB2A383E28B013AF6
:100A100092B2E283226850694007E2D5002BE0D011
:100A20004B781361A3690133A361A38B013BA383BB
:100A3000E38B013B9BB2E383D3E7E36A042B01D052
:100A4000012094E722681168FD33FF330B431360E4
:100A5000F6E72A000E992000FFF778FE00280BD059
:100A6000E36A042B01D0012081E722681168FD337D
:100A7000FF330B431360F6E72268116880239B0065
:100A80000B43136029232022E25400230A32A3548B
:100A9000023AA3546BE7022069E7022067E70120CE
:100AA00065E7C04602001000FFF7FFFF0000FFFFF0
:100AB00010B50400114B1968002901D1012010BDA7
:100AC000FA208000FFF720FB01000D4B1868FFF7AC
:100AD0001BFBFFF7D9FC00280DD1032C01D9012005
:100AE000EDE70130002221004042FFF79DFC054B5D
:100AF0001C600020E3E70120E1E7C0460000002081
:100B0000080000200400002010B50320FFF7D0FFEC
:100B1000041E02D00124200010BDFFF7ADFBFAE750
:100B2000034A1368034909685B1813607047C0469D
:100B30006800002000000020014B18687047C04684
:100B400068000020014B18687047C046080000206C
:100B500010B5FFF7F7FF064B9A68120B07231340F7
:100B60009B00044A9A581F231340D84010BDC0462A
:100B700000100240DC0D0008F0B5D6464F46464650
:100B8000C0B5002369E084683C40A446CC68B4400A
:100B900065462C4384604468944322004C682409D1
:100BA000A446012465462C409C4014434460C2681E
:100BB00017408A68B2403A43C2604A68D2004BD5B7
:100BC0009A0814001834A400484EA75903241C4066
:100BD000E4000F26A640B743A026F605B0427ED01B
:100BE000434EB04279D00226A64034003C433F4EEB
:100BF0001832920094518022B4584A46D2432600BB
:100C00004D46AE434D68ED0302D54D462C432600BC
:100C1000364C8027E6518426A459260016404D689C
:100C2000AD0302D54D462C432600304C8427E651B7
:100C30002468260016404D68ED0202D54D462C432F
:100C400026002A4C2660646822404D68AD0201D51A
:100C50004A462243254C626001330C682200DA4088
:100C60003FD001229A4025001540A9461442F3D0F6
:100C70004C68022C01D0122C0ED1DC080834A400E0
:100C8000275807261E40B6000F25B540AF430D6913
:100C9000B5402E003E4326500468A4465E0003245F
:100CA000A2462700B740B846FF4365464446A543E1
:100CB000AC464C68554625402C00B44065462C4354
:100CC00004604C68651E012D00D85CE7112C00D132
:100CD00059E7122C00D06AE755E7012684E7002681
:100CE00082E7E0BCBA46B146A846F0BD0018024013
:100CF0000004005082B0054B43430193C046019B62
:100D00005A1E0192002BF9D102B07047B80B0000B7
:100D100010B50C4A53681B0C1B040B4909680B43A4
:100D20005360536809490B400949096809040B439A
:100D30005360084B802212059A606420FFF7DAFFA7
:100D400010BDC046001002400001FF1FFFFF00FE63
:100D50004401FF1F00ED00E00D4885460D480E4997
:100D60000E4A002302E0D458C4500433C4188C4205
:100D7000F9D30B4A0B4C002301E013600432A2426A
:100D8000FBD3FFF7C5FFFFF74BFAFFF7CDFAFEE7FE
:100D9000000C0020000000200C000020040E0008C1
:100DA0000C0000206C000020FEE70000F8B5C046F3
:100DB000F8BC08BC9E467047F8B5C046F8BC08BCF5
:040DC0009E46704794
:100DC400060B0B0C0902FF220B0C0A0B010101019B
:100DD400000000000100000000000000000000000E
:100DE40000000000000000000100000002000000FC
:080DF4000300000004000000F0
:040DFC00E900000802
:040E0000C100000825
:0C0E0400010000000400000000366E0138
:0400000508000D5989
:00000001FF
