:020000040800F2
:10000000000C0020990E0008650300086703000833
:1000100000000000000000000000000000000000E0
:10002000000000000000000000000000690300085C
:1000300000000000000000006B0300086D030008D2
:10004000000000000000000000000000E90E0008B1
:10005000E90E0008E90E0008E90E0008E90E0008A4
:100060000000000000000000000000000000000090
:10007000E90E0008E90E0008E90E00080000000083
:1000800000000000E90E000800000000E90E000872
:10009000000000000000000000000000E90E000861
:1000A00000000000E90E000800000000E90E000852
:1000B0000000000000000000000000000000000040
:1000C000002243088B4274D303098B425FD3030A97
:1000D0008B4244D3030B8B4228D3030C8B420DD3AA
:1000E000FF22090212BA030C8B4202D31212090238
:1000F00065D0030B8B4219D300E0090AC30B8B4276
:1001000001D3CB03C01A5241830B8B4201D38B0323
:10011000C01A5241430B8B4201D34B03C01A5241C8
:10012000030B8B4201D30B03C01A5241C30A8B420B
:1001300001D3CB02C01A5241830A8B4201D38B02F6
:10014000C01A5241430A8B4201D34B02C01A52419A
:10015000030A8B4201D30B02C01A5241CDD2C3090C
:100160008B4201D3CB01C01A524183098B4201D388
:100170008B01C01A524143098B4201D34B01C01A73
:10018000524103098B4201D30B01C01A5241C308EB
:100190008B4201D3CB00C01A524183088B4201D35A
:1001A0008B00C01A524143088B4201D34B00C01A46
:1001B0005241411A00D20146524110467047FFE7B2
:1001C00001B5002000F006F802BDC0460029F7D0B6
:1001D00076E770477047C0460448054B10B5834228
:1001E00003D0044B002B00D0984710BD0C0000201A
:1001F0000C0000200000000006480749091A8B1077
:10020000C90FC91810B5491003D0044B002B00D0FA
:10021000984710BD0C0000200C00002000000000DA
:1002200010B5074C2378002B09D1FFF7D5FF054BFC
:10023000002B02D0044800E000BF0123237010BD52
:100240000C00002000000000EC0E0008054B10B56B
:10025000002B03D00449054800E000BFFFF7CCFFA6
:1002600010BDC0460000000010000020EC0E000889
:1002700003008218934200D1704719700133F9E7E7
:1002800070B500260C4C0D4D641BA410A64209D17C
:10029000002600F02BFE0A4C0A4D641BA410A64257
:1002A00005D170BDB300EB5898470136EEE7B300B7
:1002B000EB5898470136F2E7380F0008380F00086E
:1002C0003C0F0008380F000882B00A4B196C01225D
:1002D00011431964196C0A400092009ADA6B80216C
:1002E00049050A43DA63DB6B0B400193019B02B0C3
:1002F0007047C0460010024030B589B0142200217A
:1003000003A8FFF7B5FF144CE36B8025AD032B4327
:10031000E363E36B2B400193019B626B02231A435F
:100320006263626B13400293029B18230393063BA4
:100330000493113B0593023306930333079303A9F8
:10034000064800F0A9FCE36A1D43E562E36A044A3B
:100350001340E36209B030BD0010024000040050B9
:10036000FFFFDFFF7047FEE77047704710B500F0F2
:1003700055FC10BD70B586B00E4B5A6B022422435B
:100380005A635B6B23400093009B01940125029507
:1003900003950494084E01A9300000F07DFC202351
:1003A000019302950394049401A9300000F074FCB9
:1003B00006B070BD001002400004005010B50221CC
:1003C000034800F02FFDFA20400000F039FCF6E76A
:1003D0000004005010B50948094B0360094B436005
:1003E0008023DB0183600023C3600361436100F06D
:1003F00039FA002800D110BDFFF7E0FF28000020E7
:1004000000540040A086010010B586B002001723FA
:100410006B441970084CFA21890002910121019165
:10042000009301235F31200000F00EFB002801D172
:1004300006B010BDFFF7C2FF2800002030B587B01E
:1004400000F0E0FBFFF7C6FFFFF794FF214C00220E
:100450002021200000F0E0FC01220221200000F019
:10046000DBFC01210020FFF7CFFFFF216E20FFF70B
:10047000CBFF01AA184B180038C838C203681360B4
:100480008388938000250CE0ECB201AB595D601CC1
:10049000C0B2FFF7B9FF4A34E0B2FF21FFF7B4FF63
:1004A00001350F2DF0DD00214920FFF7ADFF0221BE
:1004B0008620FFF7A9FF094800F0ADFA054C01229C
:1004C0002021200000F0A8FC00220221200000F0E2
:1004D000A3FCFEE700040050040F000828000020E1
:1004E00070B5002811DB8308134DC0339B005C59A5
:1004F00003221040C000FC3216008640B44389013C
:100500000A40824022435A5170BD0F230340083BEA
:100510009B0806339B00094A944663445C680322A7
:100520001040C000FC3215008540AC4389010A40F0
:10053000824022435A60E7E700E100E000ED00E07E
:10054000013880235B0498420FD2094A5060094861
:10055000036A1B021B0AC02109060B430362002326
:10056000936007331360002070470120FCE7C0460A
:1005700010E000E000ED00E010B5FFF7B1FF10BDA6
:1005800010B5FFF7DDFF10BD026853695B0501D4AC
:1005900000207047084B5361002343622922202129
:1005A000815401328354C26A1C390A43C262282230
:1005B00083540120EDE7C046FFFBFFFFF0B5C646C0
:1005C00000B507000D0090461E0021E000F032FB50
:1005D000069BC01AB04201D8002E19D100237B62BD
:1005E00020212922B9540132BB54FA6A0A43FA6223
:1005F0002822BB54012019E03B689B692C009C43D6
:10060000240463425C41E4B2A0450ED1731CDDD1E9
:100610002B0CDBB2012BEFD13B685B692C009C43B8
:10062000240463425C41E4B2EEE7002080BCB8469B
:10063000F0BD0000F0B583B006000F001500019377
:100640003CE0116880239B000B4313603368234A0E
:100650005A610023736229222021B1540132B3541C
:10066000F26A1C390A43F2622822B354012033E0B3
:1006700000F0E0FA019BC01AA84201D8002D1DD15C
:100680000023736220212922B1540132B354F26A4B
:100690000A43F2622822B35401201DE033689B69AB
:1006A0003C009C432404631E9C41E4B2002C12D005
:1006B000326853695B05C4D46B1CD9D13B0CDBB2E7
:1006C000012BEBD133685B693C009C432404631E1F
:1006D0009C41E4B2EAE7002003B0F0BDFFFBFFFF5E
:1006E00070B504000E00150023685B691B061BD45F
:1006F0002000FFF749FF002818D1731CF4D000F048
:1007000099FA401BB04201D8002EEDD1002363625C
:1007100020212922A1540132A354E26A0A43E26251
:100720002822A354012000E0002070BD0120FCE736
:10073000F0B585B004000D0016001F0002681168B6
:1007400080235B000B4313600B9B00930A9B0022EA
:100750002D49FFF733FF002802D0012005B0F0BD7E
:10076000EDB22368012295431D610B9B0A9A27492C
:100770002000FFF75FFF002801D00120EEE70023F3
:10078000039323685A6903929B690393039B0B9A13
:100790000A992000FFF7A4FF00280ED1012F18D1DD
:1007A0002368F6B21E610B9B0A9A19492000FFF7D5
:1007B00041FF0028D2D00120D0E7E36A042B01D00A
:1007C0000120CBE722681168FD33FF330B43136030
:1007D000F6E72368320A1A610B9A0A992000FFF79C
:1007E0007FFF002803D12368F6B21E61DBE7E36ACE
:1007F000042B01D00120B1E722681168FD33FF33DB
:100800000B431360F6E7C04601000100020001003F
:100810008000010070B504000E00150023685B69BC
:100820005B071BD42000FFF7AFFE002818D1731C14
:10083000F4D000F0FFF9401BB04201D8002EEDD1FA
:100840000023636220212922A1540132A354E26AC9
:100850000A43E2622822A354012000E0002070BD78
:100860000120FCE7F8B5CE46474680B5041E00D10E
:10087000C0E02923C35C002B63D029232422E25447
:100880002268136801218B43136000F0F1F9050021
:1008900062685A4B9A425AD80023594A82425B41B5
:1008A000DBB2002B00D0A7E056492800FFF708FC78
:1008B00021684B683F22934303434B6027683E6A9D
:1008C000964362684D4B9A4247D8013006433E62D8
:1008D0002768FE694C4B1E4063689846474B984515
:1008E00046D8681E43465900FFF7EAFB0130474BE4
:1008F000184200D17AE00005000D0643FE61216830
:100900000B68C022934322696069024313430B6062
:1009100022689368FE218B43E1680B439360226851
:10092000136801210B4313600023E36229221F3166
:10093000A15463620132A3540020C0BCB946B04642
:10094000F8BD28330022C254FFF7D6FC95E70023F8
:100950002F4A82425B41DBB2A3E783001B181801D8
:10096000C01A8000FA218900FFF7AAFB0130ADE729
:10097000A3689946002B1CD1681E43465900414488
:10098000FFF79EFB013003055A425341DBB2002BB7
:100990002ED14B46002B1AD1681E434659004144C4
:1009A000FFF78EFB013003051B0D8020000218436A
:1009B000A3E7681E4346990041448B00C918FFF71E
:1009C0007FFB013003055A425341DBB2DFE7681E6B
:1009D0004346990041448B00C918FFF771FB013071
:1009E00003051B0DC0200002184386E7042084E79E
:1009F000012082E70120A0E701209EE7A0860100F8
:100A00007F841E0040420F000030FFFFFC0F0000FB
:100A1000FF083D00704770B5041E13D0292524231C
:100A200043550268136801218B431360FFF7F2FFFF
:100A30000023E362635563622A22A354023AA3545B
:100A4000002070BD0120FCE7F0B587B004000391E1
:100A5000049205930CAB80CB1E8800F0EBF80500E8
:100A60002923E35C202B02D0022007B0F0BD0090C8
:100A7000073B01224A492000FFF7A0FD002800D0D3
:100A800087E02823E35C012B00D184E001222823A6
:100A9000E254236819680A4203D11A6801210A4303
:100AA0001A60226813683F490B40136029232122F2
:100AB000E25401331F32E2540023E362A761E6836C
:100AC000E38BA383384B236201950E9B0093059B18
:100AD000049A03992000FFF72BFE00285DD1A38B19
:100AE000002B34D02A000E992000FFF7F9FD0028D2
:100AF00021D1A269236812781A61A069431CA361FD
:100B0000A38B013B9BB2A383E28B013A92B2E283B7
:100B100021684A695207E2D5002BE0D043780B6187
:100B2000A3690133A361A38B013BA383E38B013B47
:100B30009BB2E383D3E7E36A042B01D0012094E75F
:100B400022681168FD33FF330B431360F6E72A0078
:100B50000E992000FFF75EFE00280BD0E36A042BFD
:100B600001D0012081E722681168FD33FF330B4378
:100B70001360F6E72268116880239B000B43136023
:100B800029232022E25400230A32A354023AA35418
:100B90006BE7022069E7022067E7012065E7C046AE
:100BA00002001000FFF7FFFF0000FFFF10B5040078
:100BB000114B1968002901D1012010BDFA208000D5
:100BC000FFF77EFA01000D4B1868FFF779FAFFF77F
:100BD000D7FC00280DD1032C01D90120EDE701300D
:100BE000002221004042FFF7C7FC054B1C6000209B
:100BF000E3E70120E1E7C0460000002008000020F4
:100C00000400002010B50320FFF7D0FF041E02D01F
:100C10000124200010BDFFF757FBFAE7034A1368D1
:100C2000034909685B1813607047C04668000020DC
:100C300000000020014B18687047C0466800002083
:100C400070B50400FFF7F6FF0500631C02D0044BEB
:100C50001B68E418FFF7EEFF401BA042FAD370BDFB
:100C600000000020014B18687047C04608000020B3
:100C700010B5FFF7F7FF064B9A68120B07231340D6
:100C8000044A9B009A581F231340D84010BDC04609
:100C900000100240180F0008F0B5D6464F464646F1
:100CA000C0B5002369E084683C40A446CC68B440E9
:100CB00065462C438460446894434A68120994460C
:100CC000012265462A409A4022434260C4683C4063
:100CD0008A68B2402243C2604A68D2004CD59A0862
:100CE00014001834A4004A4EA75903241C40E40001
:100CF0000F26A640B743A026F605B04200D180E0FB
:100D0000444EB0427BD00226A64034003C43404EC5
:100D10001832920094518022B7584A46D2433E007E
:100D20004C46A6434C68E40302D53E004C4626439D
:100D3000374C8027E6518426A7593E0016404C6860
:100D4000A40302D53E004C462643314C8427E6518D
:100D500027683E0016404C68E40202D53E004C462F
:100D600026432B4C2660666832404C68A40201D5AD
:100D70004A463243264C626001330C682200DA4056
:100D800041D001229A4025001540A9461442F3D0D3
:100D90004C68022C01D0122C10D1DC080834A400BD
:100DA000275807261E40B6000F25B540AF43BC4666
:100DB0000F69B7403E0065462E4326500468A4469E
:100DC0005E000324A2462700B740B846FF436546AD
:100DD0004446A543AC464C68554625402C00B440DB
:100DE00065462C4304604C68651E012D00D85AE707
:100DF000112C00D157E7122C00D067E753E70126EA
:100E000082E7002680E7E0BCBA46B146A846F0BDBE
:100E10000018024000040050002A01D08161704790
:100E20008162FCE74369194201D0816270478161A8
:100E3000FCE7000082B0054B43430193C046019B91
:100E40005A1E0192002BF9D102B07047B80B000076
:100E500010B50C4A53681B0C1B040B4909680B4363
:100E60005360536809490B400949096809040B4359
:100E70005360084B802212059A606420FFF7DAFF66
:100E800010BDC046001002400001FF1FFFFF00FE22
:100E90004401FF1F00ED00E00D4885460D480E4956
:100EA0000E4A002302E0D458C4500433C4188C42C4
:100EB000F9D30B4A0B4C002301E013600432A24229
:100EC000FBD3FFF7C5FFFFF7DBF9FFF7B7FAFEE744
:100ED000000C0020000000200C000020400F000843
:100EE0000C0000206C000020FEE70000F8B5C046B2
:100EF000F8BC08BC9E467047F8B5C046F8BC08BCB4
:040F00009E46704752
:100F0400060B0B0C0902FF220B0C0A0B0101010159
:100F140000000000000000000000000000000000CD
:100F240000000000010000000200000003000000B7
:040F340004000000B5
:040F38004D0200085E
:040F3C002102000886
:0C0F4000010000000400000000366E01FB
:0400000508000E9948
:00000001FF
